:10000000830100308A003628A00003088301A7007E
:100010000730831685000B1D2E280B1164008312F8
:1000200005080739230603192628A20A221E2728B5
:1000300005080739A300A1102111A111231CA11447
:10004000A3182115231D2728A1152728A201A40BD9
:100050002E280C30A400A50B2E28211620308B0052
:10006000831227088300A00E200E0900213084008F
:100070002230432022308400273043208301B82BD4
:0E00800004068001840A040603190034402897
:1006FC008312A600A500211208008312A600640034
:10070C00FA30FF3E031D872BA60B852B08006430A7
:10071C00831283230516A11D992B053083127E238A
:10072C00211E962B85162119912B053083127E23C1
:10073C00211E9E2B8512912B64308312832321144E
:10074C002119B12B323083127E23211EAF2B2110A5
:10075C00B12B211DAB2B2118A62BFA30831283232E
:10076C00FA30832B83128501073083168500043001
:10077C00810083129F0183169F0107308312990019
:10078C00C8308323A301A0308B00A1102111A1112B
:10079C00C8308323A11CFA2B1E3083127E23211A0E
:1007AC00D02B211DDB2B83128D23A118D52B211AC5
:1007BC00D02B211DE32B83128D23A11CDD2B211AA1
:1007CC00D02B211DEB2B83128D23A118E52B32305E
:1007DC0083127E23211AD02BA11CF62B83128D237E
:1007EC00211DF02B8312A223211DD02B83128D23CC
:0207FC00D02B00
:02400E006C3F05
:00000001FF
